:1000000045C0000060C000005EC000005CC0000091
:100010005AC0000058C0000056C0000054C0000084
:1000200052C0000050C000004EC000004CC0000094
:100030004AC0000048C0000046C0000044C00000A4
:1000400042C0000040C000003EC000003CC00000B4
:100050003AC0000038C0000036C0000034C00000C4
:1000600032C0000030C000002EC000002CC00000D4
:100070002AC0000028C000000C94A80924C0000079
:1000800022C0000020C000001EC0000011241FBEBE
:10009000CFEFD0E1DEBFCDBF1FE0A8E0B2E001C0EE
:1000A0001D92A436B107E1F712E0A0E0B1E0E0EC68
:1000B000F6E102C005900D92A830B107D9F70E9471
:1000C0006B090C945E0B9CCFEF92FF920F931F93E2
:1000D0007B018C0120E030E040E05FE4B3D287FD9B
:1000E0000FC0C801B70120E030E040E05FE487D1F5
:1000F00030D39B01AC01205030404040504805C0F7
:10010000C801B70126D39B01AC01B901CA011F91F7
:100110000F91FF90EF900895A0E0B0E0E2E9F0E0E9
:100120000C948F0AFC01EA018081823008F438C106
:10013000DB019C91923008F430C1843059F4943042
:1001400009F02EC1918111968C911197981709F0A1
:1001500021C126C1943009F420C19230B1F482301B
:1001600009F01EC1CA01AF0128E0DA010D90AD010E
:10017000DC010D92CD012150C1F7DB0111968C916C
:1001800011979181892389830AC1823009F405C1BD
:10019000C280D380DB0112966D907C9013972481EE
:1001A0003581468157811496ED90FD900D911C91FB
:1001B0001797C601861997095C0197FF04C0AA2406
:1001C000BB24A81AB90AB0E2AB16B1040CF061C0A6
:1001D000181619066CF5370148010A2C04C09694CC
:1001E0008794779467940A94D2F781E090E0A0E036
:1001F000B0E00A2C04C0880F991FAA1FBB1F0A94E5
:10020000D2F70197A109B1098E219F21A023B12323
:10021000EE24FF248701E3940097A105B10519F4AA
:10022000EE24FF248701E628F728082919293CC075
:100230000097D1F1CA0CDB1C39014A010A2C04C019
:1002400096948794779467940A94D2F781E090E02B
:10025000A0E0B0E00A2C04C0880F991FAA1FBB1FA2
:100260000A94D2F70197A109B10982239323A42309
:10027000B52321E030E040E050E00097A105B10552
:1002800019F420E030E0A901262937294829592905
:100290000BC06C147D0424F4EE24FF24870104C0F9
:1002A000630120E030E0A9018181FB019181891780
:1002B00009F445C0882349F0D801C701821B930B7C
:1002C000A40BB50B9C01AD0104C02E193F09400BD6
:1002D000510B57FD04C01982DB82CA820BC081E03A
:1002E0008983DB82CA8250954095309521953F4F96
:1002F0004F4F5F4F2C833D834E835F830DC0880F2C
:10030000991FAA1FBB1F8C839D83AE83BF838A81E5
:100310009B8101979B838A838C819D81AE81BF8164
:100320009C01AD0121503040404050402F3FEFEF45
:100330003E07EFEF4E07EFE35E0708F30BC089833C
:10034000DB82CA822E0D3F1D401F511F2C833D832F
:100350004E835F8383E088832C813D814E815F8162
:1003600057FF1DC0DA01C90181709070A070B07094
:100370005695479537952795822B932BA42BB52B14
:100380008C839D83AE83BF838A819B8101969B83EF
:100390008A8305C0E0E0F1E003C0FB0101C0FE017B
:1003A000CF01CDB7DEB7EEE00C94AB0AA0E2B0E02F
:1003B000ECEDF1E00C94970A69837A838B839C833C
:1003C0002D833E834F83588789E0E82EF12CEC0E75
:1003D000FD1ECE010196B70132D38E010F5E1F4F75
:1003E000CE010596B8012BD3C701B801AE01475E17
:1003F0005F4F92DE57D2A096E6E00C94B30AA0E2DB
:10040000B0E0E5E0F2E00C94970A69837A838B838D
:100410009C832D833E834F8358878E01075F1F4F38
:10042000CE010196B8010BD391E1E92EF12CEC0E2F
:10043000FD1ECE010596B70102D38A8991E0892776
:100440008A8BC801B701AE01475E5F4F65DE2AD2D5
:10045000A096E6E00C94B30AA0E2B0E0E2E3F2E09A
:100460000C948B0A69837A838B839C832D833E83D0
:100470004F835887CE010196BE01675F7F4FDFD261
:10048000CE010596BE016F5E7F4FD9D2998592301D
:1004900078F089898230C0F0943019F4823041F4C8
:1004A000CBC0843019F4923079F4C6C0923051F444
:1004B00081E02A859A89291709F480E08A87CE018C
:1004C0000996BCC0823051F481E02A859A892917A7
:1004D00009F480E08A8BCE014196B0C06D847E84A1
:1004E0008F849888ED88FE880F89188DE0E2F0E00F
:1004F00080E090E0DC01AA24BB24650120E030E02C
:10050000A901B3016170707061157105D1F02E0DF4
:100510003F1D401F511F15012601280E391E4A1E7E
:100520005B1E81E090E0A0E0B0E02E153F054007A3
:10053000510718F080E090E0DC01820D931DA41DAE
:10054000B51DAA0CBB1CCC1CDD1C17FF09C061E04B
:10055000262E312C412C512CA228B328C428D52872
:10056000319749F0EE0CFF1C001F111F96948794E1
:1005700077946794C6CF6B897C89EB85FC856E0F79
:100580007F1F6E5F7F4F7C8F6B8F61E0EA857A897A
:10059000E71709F460E06A8F6B8D7C8D10C0FC0159
:1005A000E170F070309729F056954795379527956B
:1005B0005068B695A795979587956F5F7F4FB7FD64
:1005C000EECF0CC0880F991FAA1FBB1F57FD81607B
:1005D000220F331F441F551F615070408030E0E0F0
:1005E0009E07E0E0AE07E0E4BE0760F36B8F7C8F10
:1005F0006FE7E62EF12C012D112DE822F9220A23B6
:100600001B2360E4E616F1040105110561F487FD82
:100610000AC0211531054105510529F0805C9F4F25
:10062000AF4FBF4F80788D8F9E8FAF8FB8A383E081
:10063000898FCE01499602C080E091E033D1A09627
:10064000E2E185C7A8E1B0E0E7E2F3E070C76983C3
:100650007A838B839C832D833E834F8358878E01BF
:10066000075F1F4FCE010196B801E9D181E1E82E65
:10067000F12CEC0EFD1ECE010596B701E0D1898567
:10068000823038F08989823020F0C801B70140D229
:1006900001C08FEF6896E6E066C7A8E0B0E0E2E54B
:1006A000F3E045C77B018C0183E08983D801C70152
:1006B0008827B7FD83959927AA27BB27282F8A83E8
:1006C000E114F1040105110519F482E0898336C0B3
:1006D0008EE190E09C838B83222389F080E0E816F2
:1006E00080E0F80680E0080780E8180759F11095C7
:1006F0000095F094E094E11CF11C011D111DED82A8
:10070000FE820F831887C801B70172D09C01215067
:1007100030401216130694F4022E04C0EE0CFF1C97
:10072000001F111F0A94D2F7ED82FE820F831887F3
:100730008EE190E0821B930B9C838B83CE0101960C
:10074000B1D004C060E070E080E09FEC2896E6E065
:100750000AC7ACE0B0E0EEEAF3E0EDC669837A8365
:100760008B839C83CE010196BE016B5F7F4F67D167
:100770008D81823081F1823070F1843021F48E815C
:10078000882369F10AC02F81388537FD24C06E8126
:100790002F3131053CF0662311F120E030E040E0DC
:1007A00050E821C08EE190E0821B930B29853A85A9
:1007B0004B855C8504C056954795379527958A9556
:1007C000D2F7662381F050954095309521953F4FA3
:1007D0004F4F5F4F08C020E030E0A90104C02FEF69
:1007E0003FEF4FEF5FE7B901CA012C96E2E0BFC6C9
:1007F000AF92BF92CF92DF92EF92FF920F931F932F
:100800007B018C0180E0E81680E0F80681E00807B3
:1008100080E0180758F4EFEFEE16F104010511051A
:1008200009F090F480E090E0DC0117C0F0E0EF16F2
:10083000F0E0FF06F0E00F07F1E01F0750F480E161
:1008400090E0A0E0B0E009C088E090E0A0E0B0E077
:1008500004C088E190E0A0E0B0E020E230E040E0B9
:1008600050E0281B390B4A0B5B0B5701680104C091
:10087000D694C794B794A7948A95D2F7D601C501A8
:10088000885F9E4FFC018081281B31094109510975
:10089000C9011F910F91FF90EF90DF90CF90BF9013
:1008A000AF900895EF92FF920F931F93CF93DF9332
:1008B000FC012481358146815781618180818230AC
:1008C00020F44061EFEFF0E0A3C0843009F49BC056
:1008D000823009F492C0211531054105510509F412
:1008E0008FC00280F381E02D8FEFE238F8070CF023
:1008F0005AC0C2E8DFEFCE1BDF0BCA31D1056CF561
:1009000079018A010C2E04C016950795F794E79497
:100910000A94D2F781E090E0A0E0B0E00C2E04C091
:10092000880F991FAA1FBB1F0A94D2F70197A1092C
:10093000B10982239323A423B52321E030E040E0D2
:1009400050E00097A105B10519F420E030E0A901BD
:100950002E293F29402B512B03C020E030E0A90174
:10096000DA01C9018F779070A070B0708034910562
:10097000A105B10539F427FF09C0205C3F4F4F4F57
:100980005F4F04C0215C3F4F4F4F5F4FE1E0F0E00D
:10099000203080E0380780E0480780E4580728F5D9
:1009A000E0E0F0E022C0E038F1056CF5E158FF4FDF
:1009B000DA01C9018F779070A070B0708034910512
:1009C000A105B10539F427FF09C0205C3F4F4F4F07
:1009D0005F4F04C0215C3F4F4F4F5F4F57FF05C033
:1009E0005695479537952795319687E056954795C3
:1009F000379527958A95D1F70BC0E0E0F0E005C068
:100A0000E0E0F0E005C0EFEFF0E020E030E0A90129
:100A10008E2F879588278795942F9F7767956627D0
:100A20006795E695E22EA92FA82BFE2FF62B622FB5
:100A3000732F8A2F9F2FCDB7DEB7E6E094C5DC0178
:100A4000FB012C9111963C91119712968C91129763
:100A5000482F4F7750E0982F991F9927991F139689
:100A60006C911397862F880F892B90E0661F66275D
:100A7000661F6183009739F5211531054105510540
:100A800011F482E029C082E89FEF9383828367E0BC
:100A9000220F331F441F551F6A95D1F783E08083CF
:100AA00009C0220F331F441F551F82819381019774
:100AB00093838283203080E0380780E0480780E419
:100AC000580778F320C08F3F910579F4211531053F
:100AD0004105510519F484E08083089544FF03C063
:100AE00081E0808310C010820EC08F5790409383A6
:100AF000828383E0808387E0220F331F441F551FCA
:100B00008A95D1F7506424833583468357830895AB
:100B1000FC01DB019081923008F449C08C91823055
:100B200008F445C0943051F461818430B1F51196D8
:100B30002C91119730E0261B310941C0843021F0FF
:100B4000923041F48230B1F111968C911197882343
:100B5000A1F12DC06181823001F111968C91119724
:100B60006817D9F42281338112968D919C91139745
:100B70008217930794F028173907BCF02481358138
:100B80004681578114968D919D910D90BC91A02D19
:100B900082179307A407B50718F4662341F00DC028
:100BA000281739074A075B0728F4662331F021E04C
:100BB00030E005C020E030E002C02FEF3FEFC90178
:100BC0000895FC01808191818866916270E0617076
:100BD0007070762F6627770F770F770F862B972BFE
:100BE00050E041705070542F4427550F550F842BFF
:100BF000952B918380830895DF92EF92FF920F935C
:100C00001F93CF93DF93EC01CB01BA01D22E27E7DC
:100C10003CEC4BE251E420DCB5D456DA262F372FDA
:100C2000482F592F79018A0168817981706479830D
:100C300068838D2D90E0FC01E170F070D0FE04C05F
:100C4000E130F105E1F406C03F73622B732B798329
:100C5000688315C080E090ECAFEFBFE0E822F92296
:100C60000A231B230D2EDEE016950795F794E794D3
:100C7000DA95D1F7D02D6E297F2979836883DF91AA
:100C8000CF911F910F91FF90EF90DF9008950F93F8
:100C90001F93CF93DF93EC01CB01BA012CE839EF1E
:100CA00042E254E4D9DBC8D408811981106C0CDA13
:100CB0007F70062B172B19830883DF91CF911F912B
:100CC0000F9108957E7FFC01718360830895411523
:100CD00051056105710579F0E82FF92F80E090E06A
:100CE000DC01119211920196A11DB11D8417950787
:100CF000A607B707B0F30895CF93DF93B89AC09AC9
:100D00008AE18A95F1F700C0C8E0D2E0CE0145E063
:100D100050E060E070E0DBDFCE0160E040E051DFFA
:100D2000CE01029640E050E46CE176E420E064DF1E
:100D3000CE01049640E050E46CE176E421E05CDF13
:100D4000CE01069640E050E0BA01A1DF60910802B2
:100D500070910902CE010896B5DFDF91CF91089519
:100D60002F923F924F925F926F927F928F929F92BB
:100D7000AF92BF92CF92DF92EF92FF920F931F93A9
:100D8000DF93CF93CDB7DEB72E970FB6F894DEBFC3
:100D90000FBECDBF49875A876B877C8741155105A8
:100DA0006105710509F08DC019821A821B821C82AF
:100DB0006BC0AD85BE852E90BE87AD87622D70E07D
:100DC00080E090E09B01AC012F703070407050705B
:100DD0002D833E834F835887269426942694269409
:100DE0003324442455246114710481049104D9F0FE
:100DF000EE24FF248701AA24BB246501A394C60125
:100E0000B50124E630E040E050E066D30894E11CF0
:100E1000F11C011D111DE614F7040805190588F3DE
:100E20005B016C0104C0AA24BB246501A394C20128
:100E3000B1012AE030E040E050E04ED32D813E8108
:100E40004F815885620F731F841F951FA60195015E
:100E500043D329813A814B815C81260F371F481F7C
:100E6000591F29833A834B835C830894611C711C4E
:100E7000811C911C89859A85AB85BC85681679068D
:100E80008A069B0608F495CF69817A818B819C81C3
:100E90002E960FB6F894DEBF0FBECDBFCF91DF9177
:100EA0001F910F91FF90EF90DF90CF90BF90AF9088
:100EB0009F908F907F906F905F904F903F902F907A
:100EC0000895E985FA85E80FF91F31972080E22C13
:100ED000FF2400E010E0A80197012F7030704070EF
:100EE00050702D833E834F835887269426942694F2
:100EF000269433244424552429853A8521503040B2
:100F0000820F931F19821A821B821C826624772407
:100F10004301AA24BB246501A3949E878D8787CFB4
:100F20002F923F924F925F926F927F928F929F92F9
:100F3000AF92BF92CF92DF92EF92FF920F931F93E7
:100F4000DF93CF93CDB7DEB72E970FB6F894DEBF01
:100F50000FBECDBF49875A876B877C8741155105E6
:100F60006105710509F495C009851A85080F191FD7
:100F7000332419821A821B826624772443011E8738
:100F80000D87AD85BE851E91BE87AD87612F70E050
:100F90006F707070882777FD8095982F7EDB562EB6
:100FA000472E282E9C8312951F70612F70E0882792
:100FB00077FD8095982F71DB6D837E838F83988773
:100FC0006114710481049104F9F0CC24DD247601CC
:100FD000BB24AA2400E81FE36B2D7A2D802F912FCC
:100FE00020E030E048EC52E437DA0894C11CD11C10
:100FF000E11CF11CC614D704E804F90488F3B62EEA
:10100000A72E082F192F04C0BB24AA2400E81FE331
:101010002C81652D742D822D922F2B2D3A2D402F52
:10102000512F1ADAA981FA80EB80232D3A2F4F2D08
:101030005E2DBCD9F62EE72EC82E592E6B2D7A2D9B
:10104000802F912F20E030E040E251E405DABD81AD
:10105000AE811F8108852B2F3A2F412F502FFCD9AD
:101060002F2D3E2D4C2D552DA1D9362E79838A83D7
:101070009B830894611C711C811C911C89859A8535
:10108000AB85BC85681679068A069B0608F479CF7D
:1010900004C0332419821A821B8249813A812B8130
:1010A000632D742F832F922F2E960FB6F894DEBFE8
:1010B0000FBECDBFCF91DF911F910F91FF90EF90A9
:1010C000DF90CF90BF90AF909F908F907F906F9068
:1010D0005F904F903F902F900895EF92FF920F9363
:1010E0001F93CF93DF93EC017801890145305105BF
:1010F00061057105D0F060E040E063DDCE0102964D
:10110000B801A70120E078DDCE010496B801A7015F
:1011100021E072DDCE01069640E050E0BA01B7DD75
:1011200068817981CE010896CDDDDF91CF911F9145
:101130000F91FF90EF9008950F931F93082F192F91
:10114000662329F0892FCFD0802FCDD003C0CBD0FC
:10115000812FC9D01F910F910895AF92BF92CF9266
:10116000DF92EF92FF920F931F93CF93DF935A0179
:101170006B01C0982DE02A95F1F70000411551054B
:1011800061057105A9F0EC017E01F92EE701EE245D
:10119000FF2487018991999161E0CEDF0894E11CD9
:1011A000F11C011D111DEA14FB040C051D0590F333
:1011B0009DE09A95F1F70000C09ADF91CF911F91C1
:1011C0000F91FF90EF90DF90CF90BF90AF90089578
:1011D0002F923F924F925F926F927F928F929F9247
:1011E000AF92BF92CF92DF92EF92FF920F931F9335
:1011F000CF93DF938DD071D07FDD88E092E045E022
:1012000050E060E070E0A9DF2224332421010F2E9A
:10121000F8E0AF2EF2E0BF2EF02D80911202813067
:10122000E1F783E192E044E050E060E070E098DDB7
:101230003B014C018091170290911802A091190274
:10124000B0911A020497A109B10984309105A10552
:10125000B10518F3CCE1D2E072016101C50145E0AE
:1012600050E060E070E033DDCE0144E050E060E04B
:1012700070E056DE8B019C01C50145E050E060E066
:1012800070E02BDFC50145E050E060E070E065DF15
:10129000C401B3012CD00894C11CD11CE11CF11C69
:1012A0008091170290911802A0911902B0911A0230
:1012B00024960497A109B109B695A79597958795A6
:1012C000B695A79597958795C816D906EA06FB06A1
:1012D00008F4C4CFA2CF7CCF089587B3876087BBC3
:1012E00088E58DB908958FB9779BFECF0895611574
:1012F00071058105910559F0EFECF7E03197F1F7B1
:1013000000C000006150704080409040A9F70895EF
:1013100010921702109218021092190210921A02DB
:1013200010921B021092120283E380939900109294
:10133000980086E080939D00EAE9F0E088E18083F0
:101340008081806880837894089580919C000895BE
:101350001F920F920FB60F9211242F933F934F932A
:101360005F936F937F938F939F93AF93BF93EF930D
:10137000FF93EBDF80931B0280911B028A3A71F08E
:101380008F3F79F482E0809312021092170210923C
:1013900018021092190210921A0203C081E0809381
:1013A000120280911B0290E08F7090708A3091053C
:1013B0000CF081C080911B0282958F7090E08A3082
:1013C00091050CF078C080911202823009F073C050
:1013D0008091170290911802A0911902B0911A02FF
:1013E00084309105A105B10570F12091170230916B
:1013F00018024091190250911A028091170290919F
:101400001802A0911902B0911A0260911B02837018
:101410009070A070B07024503040404050405695BD
:101420004795379527955695479537952795F9010F
:10143000EE0FFF1FEE0FFF1F8E0F9F1FFC01E45EDC
:10144000FD4F608312C08091170290911802A09105
:101450001902B0911A0220911B0283709070A07043
:10146000B0708D5E9D4FFC0120838091170290919A
:101470001802A0911902B0911A020196A11DB11D86
:101480008093170290931802A0931902B0931A0246
:101490008091170290911802A0911902B0911A023E
:1014A0008C34FDE09F07F0E0AF07F0E0BF0718F0D5
:1014B00081E080931202FF91EF91BF91AF919F91D4
:1014C0008F917F916F915F914F913F912F910F90ED
:1014D0000FBE0F901F901895629FD001739FF0016F
:1014E000829FE00DF11D649FE00DF11D929FF00DB4
:1014F000839FF00D749FF00D659FF00D9927729FEB
:10150000B00DE11DF91F639FB00DE11DF91FBD0175
:10151000CF01112408952F923F924F925F926F92C4
:101520007F928F929F92AF92BF92CF92DF92EF9273
:10153000FF920F931F93CF93DF93CDB7DEB7CA1BF4
:10154000DB0B0FB6F894DEBF0FBECDBF09942A881F
:10155000398848885F846E847D848C849B84AA84C7
:10156000B984C884DF80EE80FD800C811B81AA8154
:10157000B981CE0FD11D0FB6F894DEBF0FBECDBF1F
:10158000ED0108953BD080F09F3740F491110EF4A7
:101590004DC060E070E080E89FE3089526F01B16E0
:1015A000611D711D811D01C01BC0882371F477234B
:1015B00021F09850872B762F07C0662311F49927C6
:1015C0000DC09051862B70E060E02AF09A95660F6E
:1015D000771F881FDAF7880F9695879597F90895F2
:1015E0009F3F31F0915020F4879577956795B79597
:1015F000880F911D9695879597F9089545D0A0F08D
:10160000BEE7B91788F4BB279F3860F41616B11DE2
:10161000672F782F8827985FF7CF869577956795FE
:10162000B11D93959639C8F30895E894BB276627B2
:101630007727CB0197F9089527D0E0F09E37D8F0AF
:101640009639B8F49E3848F4672F782F8827985F2A
:10165000F9CF86957795679593959539D0F3B62F01
:10166000B1706B0F711D811D20F48795779567957B
:1016700093959BCFB5CFDACF57FD9058440F551FA8
:1016800059F05F3F71F04795880F97FB991F61F004
:101690009F3F79F087950895121613061406551F7B
:1016A000F2CF4695F1DF08C0161617061806991FE7
:1016B000F1CF86957105610508940895F894FFCFE0
:1016C0000000000000000000000102020303030309
:1016D00004040404040404040505050505050505C2
:1016E00005050505050505050606060606060606A2
:1016F000060606060606060606060606060606068A
:101700000606060606060606070707070707070771
:101710000707070707070707070707070707070759
:101720000707070707070707070707070707070749
:101730000707070707070707070707070707070739
:101740000707070707070707080808080808080821
:101750000808080808080808080808080808080809
:1017600008080808080808080808080808080808F9
:1017700008080808080808080808080808080808E9
:1017800008080808080808080808080808080808D9
:1017900008080808080808080808080808080808C9
:1017A00008080808080808080808080808080808B9
:1017B00008080808080808080808080808080808A9
:0817C0000808080808080808E1
:00000001FF
